:0402AE005359480058
:1000970012026B30B11E7F147E0012025620B1FD92
:1000A7007F147E001202567BFF7A0279AE7D017FB4
:1000B700011201E230B02D7F147E0012025620B0EB
:1000C700FD7F147E00120256750C057BEC7A597D74
:1000D700017F02120223750C047BA57A137D067F2C
:1000E7000212022330B2AC7F147E0012025620B2F5
:0D00F700FD7F147E0012025612026B8096EF
:10025600EF1FAC0670011E4C600A7D027CEFDCFECF
:04026600DDFC80EC4F
:01026A002271
:06027F00C2A58F80D2A78A
:080285007F027EEFDEFEDFFCCC
:01028D00224E
:0A029A00C2A612027FC2A70202856D
:10020500CFCDCFCECCCE1200427C007D0A1200426B
:04021500ED2430FFA5
:0A021900D2A612027FC2A7020285DE
:10024000AE07BE0104ED148006BE0209ED243F4452
:0602500080FF12029A2259
:10026B007F3812029A7F0C12029A7F0612029A7F33
:04027B000102029AE0
:0A02A400AC03120240AF040202197D
:0601E2008B088A09890A5E
:1001E800120240E4FDAB08AA09A90A8D82758300B2
:0C01F800120003FF60061202190D80E9DE
:0102040022D7
:0C01AF007F0AEA24FFFDE434FFFC7E0020
:0801BB008E0D8F0E8C0F8D10CC
:1001C3007F017E00E4FBEBC39510E50F6480F874B8
:0E01D3008098500AAC0DAD0E1200300B80E883
:0101E10022FB
:040223008A0A8B0BAD
:10022700120240AA0CEAD39400400D1201AFAC0AA7
:08023700AD0B1202051A80ED67
:01023F00229C
:10010400120240C3EA64809480400B7F2B120219D0
:100114008A168B17800E7F2D120219C3E49BF517E4
:10012400E49AF516AA15EAD39400400D1201AFAC77
:0901340016AD171202051A80ED48
:01013D00229F
:04013E008A1A8B1B73
:10014200120240AA1CEAD3940040297F101201B186
:10015200AC1AAD1BCFCDCFCECCCE120042EF540F96
:10016200FEC3940AEE5004243080022437FF1202A8
:04017200191A80D105
:010176002266
:040177008A1F8B2030
:10017B00120240AA21EAD394004028EA24FFFDE4AE
:10018B0034FFFC7F027E001201BBAC1FAD20CFCD34
:10019B00CFCECCCE120042EF54012430FF12021905
:0301AB001A80D2E5
:0101AE00222E
:0300000002028E6B
:0C028E00787FE4F6D8FD7581210200970E
:10000300BB010CE58229F582E5833AF583E02250B2
:1000130006E92582F8E622BBFE06E92582F8E222FC
:0D002300E58229F582E5833AF583E4932216
:10003000EF8DF0A4A8F0CF8CF0A428CE8DF0A42EE4
:02004000FE229E
:10004200BC000BBE0029EF8DF084FFADF022E4CCA2
:10005200F875F008EF2FFFEE33FEEC33FCEE9DEC6B
:10006200984005FCEE9DFE0FD5F0E9E4CEFD22EDB1
:10007200F8F5F0EE8420D21CFEADF075F008EF2FFB
:10008200FFED33FD4007985006D5F0F222C398FDEC
:050092000FD5F0EA2289
:00000001FF
