:10000300750800750907750A00750B02750C0075F4
:100013000D09E4F50EF50FF510751104F512F5133E
:10002300F514F515F516751702AD17AC167F011209
:1000330003F7AD15AC147F021203F7AD13AC127FB7
:10004300031203F7AD11AC107F041203F7AD0FAC2D
:100053000E7F051203F7AD0DAC0C7F061203F7AD4F
:100063000BAC0A7F071203F7AD09AC087F08120334
:10007300F720B00330B10620B02520B3227F147ED1
:100083000012046420B00330B1FA20B00330B3F49B
:100093007F147E001204640509E50970020508D384
:1000A300E5099409E508648094804010E4F508F5B7
:1000B30009050BE50B7059050A02017BD3E50B9487
:1000C30009E50A648094804010E4F50AF50B050DF8
:1000D300E50D7002050C02017BD3E50D9409E50CD7
:1000E300648094804010E4F50CF50D050FE50F7066
:1000F30002050E02017BD3E50F9409E50E6480949B
:1001030080400FE4F50EF50F0511E511700205109F
:100113008066D3E5119409E51064809480400FE470
:10012300F510F5110513E513704E0512804AD3E55A
:10013300139409E51264809480400FE4F512F513DB
:100143000515E51570320514802ED3E5159409E5E0
:100153001464809480400FE4F514F5150517E51732
:10016300701605168012D3E5179409E5166480947A
:10017300804005E4F516F51720B22220B31F7F1443
:100183007E0012046420B20330B3FA7F147E00129F
:100193000464E50915097050150802025FC3E508F8
:1001A300648094805011750800750909E50B150BDF
:1001B3007002150A02025FC3E50A6480948050113D
:1001C300750A00750B09E50D150D7002150C020279
:1001D3005FC3E50C648094805010750C00750D09A5
:1001E300E50F150F7002150E8072C3E50E6480943F
:1001F300805010750E00750F09E511151170021569
:10020300108059C3E51064809480501075100075F8
:100213001109E5131513700215128040C3E512642A
:100223008094805010751200751309E5151515702B
:100233002B15148027C3E514648094805010751423
:1002430000751509E517151770121516800EC3E50D
:1002530016648094805005E4F516F51720B11F202D
:10026300B21C7F147E0012046420B10330B2FA7F03
:10027300147E001204640511E51170020510D3E524
:10028300119409E51064809480400FE4F510F51192
:100293000513E513704E0512804AD3E5139409E55F
:1002A3001264809480400FE4F512F5130515E515EB
:1002B30070020514802ED3E5159409E51464809427
:1002C30080400FE4F514F5150517E51770160516AC
:1002D3008012D3E5179409E516648094804005E401
:1002E300F516F51720B11F20B31C7F147E001204EE
:1002F3006420B10330B3FA7F147E00120464E51165
:10030300151170021510C3E51064809480501175A7
:100313001000751109E5131513701C151202002C3A
:10032300C3E512648094805011751200751309E5BA
:100333001515157002151402002CC3E5146480947E
:10034300805011751400751509E5171517700215FE
:100353001602002CC3E51664809480400302002C2F
:08036300E4F516F51702002C69
:10046400EF1FAC0670011E4C600A7D027CEFDCFEBF
:04047400DDFC80EC3F
:010478002261
:0C0479000A183F065B4F666D7D077F6F21
:1003F700EF14B40800505490040C75F003A4C5839F
:1004070025F0C5837302042402042802042C020485
:100417003002043402043C02044402044CD2A48097
:100427000ED2A48012D2A48016D2A4801AC2A4D25B
:10043700A3D2A28016C2A4D2A3C2A2800EC2A4C213
:10044700A3D2A28006C2A4C2A3C2A274182DF8E642
:0D045700F5807F017E00120464E4F5802230
:0300000002036B8D
:0C036B00787FE4F6D8FD7581210203B212
:10037700020003E493A3F8E493A34003F68001F299
:1003870008DFF48029E493A3F85407240CC8C33387
:10039700C4540F4420C8834004F456800146F6DF56
:1003A700E4800B0102040810204080900479E47E69
:1003B700019360BCA3FF543F30E509541FFEE4934B
:1003C700A360010ECF54C025E060A840B8E493A312
:1003D700FAE493A3F8E493A3C8C582C8CAC583CA3D
:1003E700F0A3C8C582C8CAC583CADFE9DEE780BEF5
:010485000076
:00000001FF
