:1000030075A0FE7FF47E011200A675A0FD7FF47E2D
:10001300011200A675A0FB7FF47E011200A675A055
:10002300F77FF47E011200A675A0EF7FF47E011224
:1000330000A675A0DF7FF47E011200A675A0BF7F26
:10004300F47E011200A675A07F7FF47E011200A644
:1000530075A0BF7FF47E011200A675A0DF7FF47E3A
:10006300011200A675A0EF7FF47E011200A675A011
:10007300F77FF47E011200A675A0FB7FF47E0112C8
:1000830000A675A0FD7FF47E011200A675A0FE7F79
:10009300F47E011200A6E4F5A07FE87E031200A619
:0300A30002000355
:1000A600EF1FAC0670011E4C600A7D027CEFDCFE81
:0400B600DDFC80EC01
:0100BA002223
:030000000200BB40
:0C00BB00787FE4F6D8FD75810702000391
:00000001FF
