:0E005E007FF47E0112006C75A0FD7FF47E0120
:10006C00EF1FAC0670011E4C600A7D027CEFDCFEBB
:04007C00DDFC80EC3B
:01008000225D
:1000030075A0FE12005E75A0FB12006875A0F712C2
:10001300006875A0EF12006875A0DF12006875A074
:10002300BF12006875A07F12006875A0BF12006838
:1000330075A0DF12006875A0EF12006875A0F712B3
:10004300006875A0FB12005E75A0FE120068E4F55F
:0B005300A07FE87E0312006C02000397
:030000000200817A
:0C008100787FE4F6D8FD758107020003CB
:00000001FF
