:0300FC00010800F8
:10008F0075A0FE20B1251200E330B1FD1200E3058B
:10009F0008E508C394084003E4F508AF087401A805
:1000AF0007088002C333D8FCF4F5A020B0D51200A6
:1000BF00E330B0FD1200E3E5087005750807800214
:1000CF001508AF087401A807088002C333D8FCF4E1
:0400DF00F5A080AF59
:0400E3007F147E0008
:1000E700EF1FAC0670011E4C600A7D027CEFDCFE40
:0400F700DDFC80ECC0
:0100FB0022E2
:03000000020003F8
:0C000300787FE4F6D8FD75810802004A01
:10000F0002008FE493A3F8E493A34003F68001F278
:10001F0008DFF48029E493A3F85407240CC8C333F2
:10002F00C4540F4420C8834004F456800146F6DFC1
:10003F00E4800B01020408102040809000FCE47E55
:10004F00019360BCA3FF543F30E509541FFEE493B6
:10005F00A360010ECF54C025E060A840B8E493A37D
:10006F00FAE493A3F8E493A3C8C582C8CAC583CAA8
:10007F00F0A3C8C582C8CAC583CADFE9DEE780BE60
:0100FF000000
:00000001FF
